{
  "contractName": "BoxwebMarket",
  "abi": [
    {
      "inputs": [],
      "stateMutability": "nonpayable",
      "type": "constructor"
    },
    {
      "anonymous": false,
      "inputs": [
        {
          "indexed": true,
          "internalType": "address",
          "name": "owner",
          "type": "address"
        },
        {
          "indexed": true,
          "internalType": "address",
          "name": "approved",
          "type": "address"
        },
        {
          "indexed": true,
          "internalType": "uint256",
          "name": "tokenId",
          "type": "uint256"
        }
      ],
      "name": "Approval",
      "type": "event"
    },
    {
      "anonymous": false,
      "inputs": [
        {
          "indexed": true,
          "internalType": "address",
          "name": "owner",
          "type": "address"
        },
        {
          "indexed": true,
          "internalType": "address",
          "name": "operator",
          "type": "address"
        },
        {
          "indexed": false,
          "internalType": "bool",
          "name": "approved",
          "type": "bool"
        }
      ],
      "name": "ApprovalForAll",
      "type": "event"
    },
    {
      "anonymous": false,
      "inputs": [
        {
          "indexed": true,
          "internalType": "address",
          "name": "previousOwner",
          "type": "address"
        },
        {
          "indexed": true,
          "internalType": "address",
          "name": "newOwner",
          "type": "address"
        }
      ],
      "name": "OwnershipTransferred",
      "type": "event"
    },
    {
      "anonymous": false,
      "inputs": [
        {
          "indexed": true,
          "internalType": "address",
          "name": "from",
          "type": "address"
        },
        {
          "indexed": true,
          "internalType": "address",
          "name": "to",
          "type": "address"
        },
        {
          "indexed": true,
          "internalType": "uint256",
          "name": "tokenId",
          "type": "uint256"
        }
      ],
      "name": "Transfer",
      "type": "event"
    },
    {
      "inputs": [
        {
          "internalType": "address",
          "name": "to",
          "type": "address"
        },
        {
          "internalType": "uint256",
          "name": "tokenId",
          "type": "uint256"
        }
      ],
      "name": "approve",
      "outputs": [],
      "stateMutability": "nonpayable",
      "type": "function"
    },
    {
      "inputs": [
        {
          "internalType": "address",
          "name": "owner",
          "type": "address"
        }
      ],
      "name": "balanceOf",
      "outputs": [
        {
          "internalType": "uint256",
          "name": "",
          "type": "uint256"
        }
      ],
      "stateMutability": "view",
      "type": "function",
      "constant": true
    },
    {
      "inputs": [
        {
          "internalType": "uint256",
          "name": "tokenId",
          "type": "uint256"
        }
      ],
      "name": "burn",
      "outputs": [],
      "stateMutability": "nonpayable",
      "type": "function"
    },
    {
      "inputs": [
        {
          "internalType": "uint256",
          "name": "tokenId",
          "type": "uint256"
        }
      ],
      "name": "getApproved",
      "outputs": [
        {
          "internalType": "address",
          "name": "",
          "type": "address"
        }
      ],
      "stateMutability": "view",
      "type": "function",
      "constant": true
    },
    {
      "inputs": [
        {
          "internalType": "address",
          "name": "owner",
          "type": "address"
        },
        {
          "internalType": "address",
          "name": "operator",
          "type": "address"
        }
      ],
      "name": "isApprovedForAll",
      "outputs": [
        {
          "internalType": "bool",
          "name": "",
          "type": "bool"
        }
      ],
      "stateMutability": "view",
      "type": "function",
      "constant": true
    },
    {
      "inputs": [],
      "name": "name",
      "outputs": [
        {
          "internalType": "string",
          "name": "",
          "type": "string"
        }
      ],
      "stateMutability": "view",
      "type": "function",
      "constant": true
    },
    {
      "inputs": [],
      "name": "owner",
      "outputs": [
        {
          "internalType": "address",
          "name": "",
          "type": "address"
        }
      ],
      "stateMutability": "view",
      "type": "function",
      "constant": true
    },
    {
      "inputs": [
        {
          "internalType": "uint256",
          "name": "tokenId",
          "type": "uint256"
        }
      ],
      "name": "ownerOf",
      "outputs": [
        {
          "internalType": "address",
          "name": "",
          "type": "address"
        }
      ],
      "stateMutability": "view",
      "type": "function",
      "constant": true
    },
    {
      "inputs": [],
      "name": "renounceOwnership",
      "outputs": [],
      "stateMutability": "nonpayable",
      "type": "function"
    },
    {
      "inputs": [
        {
          "internalType": "address",
          "name": "from",
          "type": "address"
        },
        {
          "internalType": "address",
          "name": "to",
          "type": "address"
        },
        {
          "internalType": "uint256",
          "name": "tokenId",
          "type": "uint256"
        }
      ],
      "name": "safeTransferFrom",
      "outputs": [],
      "stateMutability": "nonpayable",
      "type": "function"
    },
    {
      "inputs": [
        {
          "internalType": "address",
          "name": "from",
          "type": "address"
        },
        {
          "internalType": "address",
          "name": "to",
          "type": "address"
        },
        {
          "internalType": "uint256",
          "name": "tokenId",
          "type": "uint256"
        },
        {
          "internalType": "bytes",
          "name": "data",
          "type": "bytes"
        }
      ],
      "name": "safeTransferFrom",
      "outputs": [],
      "stateMutability": "nonpayable",
      "type": "function"
    },
    {
      "inputs": [
        {
          "internalType": "address",
          "name": "operator",
          "type": "address"
        },
        {
          "internalType": "bool",
          "name": "approved",
          "type": "bool"
        }
      ],
      "name": "setApprovalForAll",
      "outputs": [],
      "stateMutability": "nonpayable",
      "type": "function"
    },
    {
      "inputs": [
        {
          "internalType": "bytes4",
          "name": "interfaceId",
          "type": "bytes4"
        }
      ],
      "name": "supportsInterface",
      "outputs": [
        {
          "internalType": "bool",
          "name": "",
          "type": "bool"
        }
      ],
      "stateMutability": "view",
      "type": "function",
      "constant": true
    },
    {
      "inputs": [],
      "name": "symbol",
      "outputs": [
        {
          "internalType": "string",
          "name": "",
          "type": "string"
        }
      ],
      "stateMutability": "view",
      "type": "function",
      "constant": true
    },
    {
      "inputs": [
        {
          "internalType": "uint256",
          "name": "tokenId",
          "type": "uint256"
        }
      ],
      "name": "tokenURI",
      "outputs": [
        {
          "internalType": "string",
          "name": "",
          "type": "string"
        }
      ],
      "stateMutability": "view",
      "type": "function",
      "constant": true
    },
    {
      "inputs": [
        {
          "internalType": "address",
          "name": "from",
          "type": "address"
        },
        {
          "internalType": "address",
          "name": "to",
          "type": "address"
        },
        {
          "internalType": "uint256",
          "name": "tokenId",
          "type": "uint256"
        }
      ],
      "name": "transferFrom",
      "outputs": [],
      "stateMutability": "nonpayable",
      "type": "function"
    },
    {
      "inputs": [
        {
          "internalType": "address",
          "name": "newOwner",
          "type": "address"
        }
      ],
      "name": "transferOwnership",
      "outputs": [],
      "stateMutability": "nonpayable",
      "type": "function"
    },
    {
      "inputs": [
        {
          "internalType": "address",
          "name": "to",
          "type": "address"
        }
      ],
      "name": "safeMint",
      "outputs": [],
      "stateMutability": "nonpayable",
      "type": "function"
    }
  ],
  "bytecode": "0x60806040523480156200001157600080fd5b506040518060400160405280600c81526020017f426f787765624d61726b657400000000000000000000000000000000000000008152506040518060400160405280600381526020017f424f430000000000000000000000000000000000000000000000000000000000815250816000908051906020019062000096929190620001b8565b508060019080519060200190620000af929190620001b8565b505050620000e4620000cf620000ea640100000000026401000000009004565b620000f2640100000000026401000000009004565b620002cc565b600033905090565b6000600660009054906101000a900473ffffffffffffffffffffffffffffffffffffffff16905081600660006101000a81548173ffffffffffffffffffffffffffffffffffffffff021916908373ffffffffffffffffffffffffffffffffffffffff1602179055508173ffffffffffffffffffffffffffffffffffffffff168173ffffffffffffffffffffffffffffffffffffffff167f8be0079c531659141344cd1fd0a4f28419497f9722a3daafe3b4186f6b6457e060405160405180910390a35050565b828054620001c69062000297565b90600052602060002090601f016020900481019282620001ea576000855562000236565b82601f106200020557805160ff191683800117855562000236565b8280016001018555821562000236579182015b828111156200023557825182559160200191906001019062000218565b5b50905062000245919062000249565b5090565b5b80821115620002645760008160009055506001016200024a565b5090565b7f4e487b7100000000000000000000000000000000000000000000000000000000600052602260045260246000fd5b60006002820490506001821680620002b057607f821691505b602082108103620002c657620002c562000268565b5b50919050565b612c8780620002dc6000396000f3fe608060405234801561001057600080fd5b5060043610610133576000357c01000000000000000000000000000000000000000000000000000000009004806370a08231116100bf578063a22cb4651161008e578063a22cb465146102e8578063b88d4fde14610304578063c87b56dd14610320578063e985e9c514610350578063f2fde38b1461038057610133565b806370a0823114610272578063715018a6146102a25780638da5cb5b146102ac57806395d89b41146102ca57610133565b806323b872dd1161010657806323b872dd146101d257806340d097c3146101ee57806342842e0e1461020a57806342966c68146102265780636352211e1461024257610133565b806301ffc9a71461013857806306fdde0314610168578063081812fc14610186578063095ea7b3146101b6575b600080fd5b610152600480360381019061014d9190611dc3565b61039c565b60405161015f9190611e0b565b60405180910390f35b61017061047e565b60405161017d9190611ebf565b60405180910390f35b6101a0600480360381019061019b9190611f17565b610510565b6040516101ad9190611f85565b60405180910390f35b6101d060048036038101906101cb9190611fcc565b610556565b005b6101ec60048036038101906101e7919061200c565b61066d565b005b6102086004803603810190610203919061205f565b6106cd565b005b610224600480360381019061021f919061200c565b6106fb565b005b610240600480360381019061023b9190611f17565b61071b565b005b61025c60048036038101906102579190611f17565b610777565b6040516102699190611f85565b60405180910390f35b61028c6004803603810190610287919061205f565b6107fd565b604051610299919061209b565b60405180910390f35b6102aa6108b4565b005b6102b46108c8565b6040516102c19190611f85565b60405180910390f35b6102d26108f2565b6040516102df9190611ebf565b60405180910390f35b61030260048036038101906102fd91906120e2565b610984565b005b61031e60048036038101906103199190612257565b61099a565b005b61033a60048036038101906103359190611f17565b6109fc565b6040516103479190611ebf565b60405180910390f35b61036a600480360381019061036591906122da565b610a64565b6040516103779190611e0b565b60405180910390f35b61039a6004803603810190610395919061205f565b610af8565b005b60007f80ac58cd000000000000000000000000000000000000000000000000000000007bffffffffffffffffffffffffffffffffffffffffffffffffffffffff1916827bffffffffffffffffffffffffffffffffffffffffffffffffffffffff1916148061046757507f5b5e139f000000000000000000000000000000000000000000000000000000007bffffffffffffffffffffffffffffffffffffffffffffffffffffffff1916827bffffffffffffffffffffffffffffffffffffffffffffffffffffffff1916145b80610477575061047682610b7b565b5b9050919050565b60606000805461048d90612349565b80601f01602080910402602001604051908101604052809291908181526020018280546104b990612349565b80156105065780601f106104db57610100808354040283529160200191610506565b820191906000526020600020905b8154815290600101906020018083116104e957829003601f168201915b5050505050905090565b600061051b82610be5565b6004600083815260200190815260200160002060009054906101000a900473ffffffffffffffffffffffffffffffffffffffff169050919050565b600061056182610777565b90508073ffffffffffffffffffffffffffffffffffffffff168373ffffffffffffffffffffffffffffffffffffffff16036105d1576040517f08c379a00000000000000000000000000000000000000000000000000000000081526004016105c8906123ec565b60405180910390fd5b8073ffffffffffffffffffffffffffffffffffffffff166105f0610c30565b73ffffffffffffffffffffffffffffffffffffffff16148061061f575061061e81610619610c30565b610a64565b5b61065e576040517f08c379a00000000000000000000000000000000000000000000000000000000081526004016106559061247e565b60405180910390fd5b6106688383610c38565b505050565b61067e610678610c30565b82610cf1565b6106bd576040517f08c379a00000000000000000000000000000000000000000000000000000000081526004016106b490612510565b60405180910390fd5b6106c8838383610d86565b505050565b6106d561107f565b60006106e160076110fd565b90506106ed600761110b565b6106f78282611121565b5050565b6107168383836040518060200160405280600081525061099a565b505050565b61072c610726610c30565b82610cf1565b61076b576040517f08c379a000000000000000000000000000000000000000000000000000000000815260040161076290612510565b60405180910390fd5b6107748161113f565b50565b6000806107838361128d565b9050600073ffffffffffffffffffffffffffffffffffffffff168173ffffffffffffffffffffffffffffffffffffffff16036107f4576040517f08c379a00000000000000000000000000000000000000000000000000000000081526004016107eb9061257c565b60405180910390fd5b80915050919050565b60008073ffffffffffffffffffffffffffffffffffffffff168273ffffffffffffffffffffffffffffffffffffffff160361086d576040517f08c379a00000000000000000000000000000000000000000000000000000000081526004016108649061260e565b60405180910390fd5b600360008373ffffffffffffffffffffffffffffffffffffffff1673ffffffffffffffffffffffffffffffffffffffff168152602001908152602001600020549050919050565b6108bc61107f565b6108c660006112ca565b565b6000600660009054906101000a900473ffffffffffffffffffffffffffffffffffffffff16905090565b60606001805461090190612349565b80601f016020809104026020016040519081016040528092919081815260200182805461092d90612349565b801561097a5780601f1061094f5761010080835404028352916020019161097a565b820191906000526020600020905b81548152906001019060200180831161095d57829003601f168201915b5050505050905090565b61099661098f610c30565b8383611390565b5050565b6109ab6109a5610c30565b83610cf1565b6109ea576040517f08c379a00000000000000000000000000000000000000000000000000000000081526004016109e190612510565b60405180910390fd5b6109f6848484846114fc565b50505050565b6060610a0782610be5565b6000610a11611558565b90506000815111610a315760405180602001604052806000815250610a5c565b80610a3b8461156f565b604051602001610a4c92919061266a565b6040516020818303038152906040525b915050919050565b6000600560008473ffffffffffffffffffffffffffffffffffffffff1673ffffffffffffffffffffffffffffffffffffffff16815260200190815260200160002060008373ffffffffffffffffffffffffffffffffffffffff1673ffffffffffffffffffffffffffffffffffffffff16815260200190815260200160002060009054906101000a900460ff16905092915050565b610b0061107f565b600073ffffffffffffffffffffffffffffffffffffffff168173ffffffffffffffffffffffffffffffffffffffff1603610b6f576040517f08c379a0000000000000000000000000000000000000000000000000000000008152600401610b6690612700565b60405180910390fd5b610b78816112ca565b50565b60007f01ffc9a7000000000000000000000000000000000000000000000000000000007bffffffffffffffffffffffffffffffffffffffffffffffffffffffff1916827bffffffffffffffffffffffffffffffffffffffffffffffffffffffff1916149050919050565b610bee8161163d565b610c2d576040517f08c379a0000000000000000000000000000000000000000000000000000000008152600401610c249061257c565b60405180910390fd5b50565b600033905090565b816004600083815260200190815260200160002060006101000a81548173ffffffffffffffffffffffffffffffffffffffff021916908373ffffffffffffffffffffffffffffffffffffffff160217905550808273ffffffffffffffffffffffffffffffffffffffff16610cab83610777565b73ffffffffffffffffffffffffffffffffffffffff167f8c5be1e5ebec7d5bd14f71427d1e84f3dd0314c0f7b2291e5b200ac8c7c3b92560405160405180910390a45050565b600080610cfd83610777565b90508073ffffffffffffffffffffffffffffffffffffffff168473ffffffffffffffffffffffffffffffffffffffff161480610d3f5750610d3e8185610a64565b5b80610d7d57508373ffffffffffffffffffffffffffffffffffffffff16610d6584610510565b73ffffffffffffffffffffffffffffffffffffffff16145b91505092915050565b8273ffffffffffffffffffffffffffffffffffffffff16610da682610777565b73ffffffffffffffffffffffffffffffffffffffff1614610dfc576040517f08c379a0000000000000000000000000000000000000000000000000000000008152600401610df390612792565b60405180910390fd5b600073ffffffffffffffffffffffffffffffffffffffff168273ffffffffffffffffffffffffffffffffffffffff1603610e6b576040517f08c379a0000000000000000000000000000000000000000000000000000000008152600401610e6290612824565b60405180910390fd5b610e78838383600161167e565b8273ffffffffffffffffffffffffffffffffffffffff16610e9882610777565b73ffffffffffffffffffffffffffffffffffffffff1614610eee576040517f08c379a0000000000000000000000000000000000000000000000000000000008152600401610ee590612792565b60405180910390fd5b6004600082815260200190815260200160002060006101000a81549073ffffffffffffffffffffffffffffffffffffffff02191690556001600360008573ffffffffffffffffffffffffffffffffffffffff1673ffffffffffffffffffffffffffffffffffffffff168152602001908152602001600020600082825403925050819055506001600360008473ffffffffffffffffffffffffffffffffffffffff1673ffffffffffffffffffffffffffffffffffffffff16815260200190815260200160002060008282540192505081905550816002600083815260200190815260200160002060006101000a81548173ffffffffffffffffffffffffffffffffffffffff021916908373ffffffffffffffffffffffffffffffffffffffff160217905550808273ffffffffffffffffffffffffffffffffffffffff168473ffffffffffffffffffffffffffffffffffffffff167fddf252ad1be2c89b69c2b068fc378daa952ba7f163c4a11628f55a4df523b3ef60405160405180910390a461107a83838360016117a4565b505050565b611087610c30565b73ffffffffffffffffffffffffffffffffffffffff166110a56108c8565b73ffffffffffffffffffffffffffffffffffffffff16146110fb576040517f08c379a00000000000000000000000000000000000000000000000000000000081526004016110f290612890565b60405180910390fd5b565b600081600001549050919050565b6001816000016000828254019250508190555050565b61113b8282604051806020016040528060008152506117aa565b5050565b600061114a82610777565b905061115a81600084600161167e565b61116382610777565b90506004600083815260200190815260200160002060006101000a81549073ffffffffffffffffffffffffffffffffffffffff02191690556001600360008373ffffffffffffffffffffffffffffffffffffffff1673ffffffffffffffffffffffffffffffffffffffff168152602001908152602001600020600082825403925050819055506002600083815260200190815260200160002060006101000a81549073ffffffffffffffffffffffffffffffffffffffff021916905581600073ffffffffffffffffffffffffffffffffffffffff168273ffffffffffffffffffffffffffffffffffffffff167fddf252ad1be2c89b69c2b068fc378daa952ba7f163c4a11628f55a4df523b3ef60405160405180910390a46112898160008460016117a4565b5050565b60006002600083815260200190815260200160002060009054906101000a900473ffffffffffffffffffffffffffffffffffffffff169050919050565b6000600660009054906101000a900473ffffffffffffffffffffffffffffffffffffffff16905081600660006101000a81548173ffffffffffffffffffffffffffffffffffffffff021916908373ffffffffffffffffffffffffffffffffffffffff1602179055508173ffffffffffffffffffffffffffffffffffffffff168173ffffffffffffffffffffffffffffffffffffffff167f8be0079c531659141344cd1fd0a4f28419497f9722a3daafe3b4186f6b6457e060405160405180910390a35050565b8173ffffffffffffffffffffffffffffffffffffffff168373ffffffffffffffffffffffffffffffffffffffff16036113fe576040517f08c379a00000000000000000000000000000000000000000000000000000000081526004016113f5906128fc565b60405180910390fd5b80600560008573ffffffffffffffffffffffffffffffffffffffff1673ffffffffffffffffffffffffffffffffffffffff16815260200190815260200160002060008473ffffffffffffffffffffffffffffffffffffffff1673ffffffffffffffffffffffffffffffffffffffff16815260200190815260200160002060006101000a81548160ff0219169083151502179055508173ffffffffffffffffffffffffffffffffffffffff168373ffffffffffffffffffffffffffffffffffffffff167f17307eab39ab6107e8899845ad3d59bd9653f200f220920489ca2b5937696c31836040516114ef9190611e0b565b60405180910390a3505050565b611507848484610d86565b61151384848484611805565b611552576040517f08c379a00000000000000000000000000000000000000000000000000000000081526004016115499061298e565b60405180910390fd5b50505050565b606060405180602001604052806000815250905090565b60606000600161157e846119c4565b01905060008167ffffffffffffffff81111561159d5761159c61212c565b5b6040519080825280601f01601f1916602001820160405280156115cf5781602001600182028036833780820191505090505b509050600082602001820190505b600115611632578080600190039150507f3031323334353637383961626364656600000000000000000000000000000000600a86061a8153600a8581611626576116256129ae565b5b049450600085036115dd575b819350505050919050565b60008073ffffffffffffffffffffffffffffffffffffffff1661165f8361128d565b73ffffffffffffffffffffffffffffffffffffffff1614159050919050565b600181111561179e57600073ffffffffffffffffffffffffffffffffffffffff168473ffffffffffffffffffffffffffffffffffffffff16146117125780600360008673ffffffffffffffffffffffffffffffffffffffff1673ffffffffffffffffffffffffffffffffffffffff168152602001908152602001600020600082825461170a9190612a0c565b925050819055505b600073ffffffffffffffffffffffffffffffffffffffff168373ffffffffffffffffffffffffffffffffffffffff161461179d5780600360008573ffffffffffffffffffffffffffffffffffffffff1673ffffffffffffffffffffffffffffffffffffffff16815260200190815260200160002060008282546117959190612a40565b925050819055505b5b50505050565b50505050565b6117b48383611b17565b6117c16000848484611805565b611800576040517f08c379a00000000000000000000000000000000000000000000000000000000081526004016117f79061298e565b60405180910390fd5b505050565b60006118268473ffffffffffffffffffffffffffffffffffffffff16611d34565b156119b7578373ffffffffffffffffffffffffffffffffffffffff1663150b7a0261184f610c30565b8786866040518563ffffffff167c010000000000000000000000000000000000000000000000000000000002815260040161188d9493929190612aeb565b6020604051808303816000875af19250505080156118c957506040513d601f19601f820116820180604052508101906118c69190612b4c565b60015b61194b573d80600081146118f9576040519150601f19603f3d011682016040523d82523d6000602084013e6118fe565b606091505b506000815103611943576040517f08c379a000000000000000000000000000000000000000000000000000000000815260040161193a9061298e565b60405180910390fd5b805181602001fd5b63150b7a027c0100000000000000000000000000000000000000000000000000000000027bffffffffffffffffffffffffffffffffffffffffffffffffffffffff1916817bffffffffffffffffffffffffffffffffffffffffffffffffffffffff1916149150506119bc565b600190505b949350505050565b600080600090507a184f03e93ff9f4daa797ed6e38ed64bf6a1f0100000000000000008310611a22577a184f03e93ff9f4daa797ed6e38ed64bf6a1f0100000000000000008381611a1857611a176129ae565b5b0492506040810190505b6d04ee2d6d415b85acef81000000008310611a5f576d04ee2d6d415b85acef81000000008381611a5557611a546129ae565b5b0492506020810190505b662386f26fc100008310611a8e57662386f26fc100008381611a8457611a836129ae565b5b0492506010810190505b6305f5e1008310611ab7576305f5e1008381611aad57611aac6129ae565b5b0492506008810190505b6127108310611adc576127108381611ad257611ad16129ae565b5b0492506004810190505b60648310611aff5760648381611af557611af46129ae565b5b0492506002810190505b600a8310611b0e576001810190505b80915050919050565b600073ffffffffffffffffffffffffffffffffffffffff168273ffffffffffffffffffffffffffffffffffffffff1603611b86576040517f08c379a0000000000000000000000000000000000000000000000000000000008152600401611b7d90612bc5565b60405180910390fd5b611b8f8161163d565b15611bcf576040517f08c379a0000000000000000000000000000000000000000000000000000000008152600401611bc690612c31565b60405180910390fd5b611bdd60008383600161167e565b611be68161163d565b15611c26576040517f08c379a0000000000000000000000000000000000000000000000000000000008152600401611c1d90612c31565b60405180910390fd5b6001600360008473ffffffffffffffffffffffffffffffffffffffff1673ffffffffffffffffffffffffffffffffffffffff16815260200190815260200160002060008282540192505081905550816002600083815260200190815260200160002060006101000a81548173ffffffffffffffffffffffffffffffffffffffff021916908373ffffffffffffffffffffffffffffffffffffffff160217905550808273ffffffffffffffffffffffffffffffffffffffff16600073ffffffffffffffffffffffffffffffffffffffff167fddf252ad1be2c89b69c2b068fc378daa952ba7f163c4a11628f55a4df523b3ef60405160405180910390a4611d306000838360016117a4565b5050565b6000808273ffffffffffffffffffffffffffffffffffffffff163b119050919050565b6000604051905090565b600080fd5b600080fd5b60007fffffffff0000000000000000000000000000000000000000000000000000000082169050919050565b611da081611d6b565b8114611dab57600080fd5b50565b600081359050611dbd81611d97565b92915050565b600060208284031215611dd957611dd8611d61565b5b6000611de784828501611dae565b91505092915050565b60008115159050919050565b611e0581611df0565b82525050565b6000602082019050611e206000830184611dfc565b92915050565b600081519050919050565b600082825260208201905092915050565b60005b83811015611e60578082015181840152602081019050611e45565b83811115611e6f576000848401525b50505050565b6000601f19601f8301169050919050565b6000611e9182611e26565b611e9b8185611e31565b9350611eab818560208601611e42565b611eb481611e75565b840191505092915050565b60006020820190508181036000830152611ed98184611e86565b905092915050565b6000819050919050565b611ef481611ee1565b8114611eff57600080fd5b50565b600081359050611f1181611eeb565b92915050565b600060208284031215611f2d57611f2c611d61565b5b6000611f3b84828501611f02565b91505092915050565b600073ffffffffffffffffffffffffffffffffffffffff82169050919050565b6000611f6f82611f44565b9050919050565b611f7f81611f64565b82525050565b6000602082019050611f9a6000830184611f76565b92915050565b611fa981611f64565b8114611fb457600080fd5b50565b600081359050611fc681611fa0565b92915050565b60008060408385031215611fe357611fe2611d61565b5b6000611ff185828601611fb7565b925050602061200285828601611f02565b9150509250929050565b60008060006060848603121561202557612024611d61565b5b600061203386828701611fb7565b935050602061204486828701611fb7565b925050604061205586828701611f02565b9150509250925092565b60006020828403121561207557612074611d61565b5b600061208384828501611fb7565b91505092915050565b61209581611ee1565b82525050565b60006020820190506120b0600083018461208c565b92915050565b6120bf81611df0565b81146120ca57600080fd5b50565b6000813590506120dc816120b6565b92915050565b600080604083850312156120f9576120f8611d61565b5b600061210785828601611fb7565b9250506020612118858286016120cd565b9150509250929050565b600080fd5b600080fd5b7f4e487b7100000000000000000000000000000000000000000000000000000000600052604160045260246000fd5b61216482611e75565b810181811067ffffffffffffffff821117156121835761218261212c565b5b80604052505050565b6000612196611d57565b90506121a2828261215b565b919050565b600067ffffffffffffffff8211156121c2576121c161212c565b5b6121cb82611e75565b9050602081019050919050565b82818337600083830152505050565b60006121fa6121f5846121a7565b61218c565b90508281526020810184848401111561221657612215612127565b5b6122218482856121d8565b509392505050565b600082601f83011261223e5761223d612122565b5b813561224e8482602086016121e7565b91505092915050565b6000806000806080858703121561227157612270611d61565b5b600061227f87828801611fb7565b945050602061229087828801611fb7565b93505060406122a187828801611f02565b925050606085013567ffffffffffffffff8111156122c2576122c1611d66565b5b6122ce87828801612229565b91505092959194509250565b600080604083850312156122f1576122f0611d61565b5b60006122ff85828601611fb7565b925050602061231085828601611fb7565b9150509250929050565b7f4e487b7100000000000000000000000000000000000000000000000000000000600052602260045260246000fd5b6000600282049050600182168061236157607f821691505b6020821081036123745761237361231a565b5b50919050565b7f4552433732313a20617070726f76616c20746f2063757272656e74206f776e6560008201527f7200000000000000000000000000000000000000000000000000000000000000602082015250565b60006123d6602183611e31565b91506123e18261237a565b604082019050919050565b60006020820190508181036000830152612405816123c9565b9050919050565b7f4552433732313a20617070726f76652063616c6c6572206973206e6f7420746f60008201527f6b656e206f776e6572206f7220617070726f76656420666f7220616c6c000000602082015250565b6000612468603d83611e31565b91506124738261240c565b604082019050919050565b600060208201905081810360008301526124978161245b565b9050919050565b7f4552433732313a2063616c6c6572206973206e6f7420746f6b656e206f776e6560008201527f72206f7220617070726f76656400000000000000000000000000000000000000602082015250565b60006124fa602d83611e31565b91506125058261249e565b604082019050919050565b60006020820190508181036000830152612529816124ed565b9050919050565b7f4552433732313a20696e76616c696420746f6b656e2049440000000000000000600082015250565b6000612566601883611e31565b915061257182612530565b602082019050919050565b6000602082019050818103600083015261259581612559565b9050919050565b7f4552433732313a2061646472657373207a65726f206973206e6f74206120766160008201527f6c6964206f776e65720000000000000000000000000000000000000000000000602082015250565b60006125f8602983611e31565b91506126038261259c565b604082019050919050565b60006020820190508181036000830152612627816125eb565b9050919050565b600081905092915050565b600061264482611e26565b61264e818561262e565b935061265e818560208601611e42565b80840191505092915050565b60006126768285612639565b91506126828284612639565b91508190509392505050565b7f4f776e61626c653a206e6577206f776e657220697320746865207a65726f206160008201527f6464726573730000000000000000000000000000000000000000000000000000602082015250565b60006126ea602683611e31565b91506126f58261268e565b604082019050919050565b60006020820190508181036000830152612719816126dd565b9050919050565b7f4552433732313a207472616e736665722066726f6d20696e636f72726563742060008201527f6f776e6572000000000000000000000000000000000000000000000000000000602082015250565b600061277c602583611e31565b915061278782612720565b604082019050919050565b600060208201905081810360008301526127ab8161276f565b9050919050565b7f4552433732313a207472616e7366657220746f20746865207a65726f2061646460008201527f7265737300000000000000000000000000000000000000000000000000000000602082015250565b600061280e602483611e31565b9150612819826127b2565b604082019050919050565b6000602082019050818103600083015261283d81612801565b9050919050565b7f4f776e61626c653a2063616c6c6572206973206e6f7420746865206f776e6572600082015250565b600061287a602083611e31565b915061288582612844565b602082019050919050565b600060208201905081810360008301526128a98161286d565b9050919050565b7f4552433732313a20617070726f766520746f2063616c6c657200000000000000600082015250565b60006128e6601983611e31565b91506128f1826128b0565b602082019050919050565b60006020820190508181036000830152612915816128d9565b9050919050565b7f4552433732313a207472616e7366657220746f206e6f6e20455243373231526560008201527f63656976657220696d706c656d656e7465720000000000000000000000000000602082015250565b6000612978603283611e31565b91506129838261291c565b604082019050919050565b600060208201905081810360008301526129a78161296b565b9050919050565b7f4e487b7100000000000000000000000000000000000000000000000000000000600052601260045260246000fd5b7f4e487b7100000000000000000000000000000000000000000000000000000000600052601160045260246000fd5b6000612a1782611ee1565b9150612a2283611ee1565b925082821015612a3557612a346129dd565b5b828203905092915050565b6000612a4b82611ee1565b9150612a5683611ee1565b9250827fffffffffffffffffffffffffffffffffffffffffffffffffffffffffffffffff03821115612a8b57612a8a6129dd565b5b828201905092915050565b600081519050919050565b600082825260208201905092915050565b6000612abd82612a96565b612ac78185612aa1565b9350612ad7818560208601611e42565b612ae081611e75565b840191505092915050565b6000608082019050612b006000830187611f76565b612b0d6020830186611f76565b612b1a604083018561208c565b8181036060830152612b2c8184612ab2565b905095945050505050565b600081519050612b4681611d97565b92915050565b600060208284031215612b6257612b61611d61565b5b6000612b7084828501612b37565b91505092915050565b7f4552433732313a206d696e7420746f20746865207a65726f2061646472657373600082015250565b6000612baf602083611e31565b9150612bba82612b79565b602082019050919050565b60006020820190508181036000830152612bde81612ba2565b9050919050565b7f4552433732313a20746f6b656e20616c7265616479206d696e74656400000000600082015250565b6000612c1b601c83611e31565b9150612c2682612be5565b602082019050919050565b60006020820190508181036000830152612c4a81612c0e565b905091905056fea26469706673582212204396ed39d47c44d678433742520be61fcbb7fe8fb556f6fa550f639f57d65ff264736f6c634300080d0033",
  "immutableReferences": {},
  "source": "// SPDX-License-Identifier: MIT\npragma solidity ^0.8.13;\n\nimport \"@openzeppelin/contracts/token/ERC721/ERC721.sol\";\nimport \"@openzeppelin/contracts/token/ERC721/extensions/ERC721Burnable.sol\";\nimport \"@openzeppelin/contracts/access/Ownable.sol\";\nimport \"@openzeppelin/contracts/utils/Counters.sol\";\n\ncontract BoxwebMarket is ERC721, ERC721Burnable, Ownable {\n  using Counters for Counters.Counter;\n\n  Counters.Counter private _tokenIdCounter;\n\n  constructor() ERC721(\"BoxwebMarket\", \"BOC\") {}\n\n  function safeMint(address to) public onlyOwner {\n    uint256 tokenId = _tokenIdCounter.current();\n    _tokenIdCounter.increment();\n    _safeMint(to, tokenId);\n  }\n}\n",
  "sourcePath": "D:\\Projects\\boxweb\\contracts\\BoxwebMarket.sol",
  "compiler": {
    "name": "solc",
    "version": "0.8.13+commit.abaa5c0e.Emscripten.clang"
  },
  "schemaVersion": "3.4.10",
  "updatedAt": "2023-01-28T05:23:03.718Z",
  "networkType": "ethereum",
  "devdoc": {
    "kind": "dev",
    "methods": {
      "approve(address,uint256)": {
        "details": "See {IERC721-approve}."
      },
      "balanceOf(address)": {
        "details": "See {IERC721-balanceOf}."
      },
      "burn(uint256)": {
        "details": "Burns `tokenId`. See {ERC721-_burn}. Requirements: - The caller must own `tokenId` or be an approved operator."
      },
      "getApproved(uint256)": {
        "details": "See {IERC721-getApproved}."
      },
      "isApprovedForAll(address,address)": {
        "details": "See {IERC721-isApprovedForAll}."
      },
      "name()": {
        "details": "See {IERC721Metadata-name}."
      },
      "owner()": {
        "details": "Returns the address of the current owner."
      },
      "ownerOf(uint256)": {
        "details": "See {IERC721-ownerOf}."
      },
      "renounceOwnership()": {
        "details": "Leaves the contract without owner. It will not be possible to call `onlyOwner` functions anymore. Can only be called by the current owner. NOTE: Renouncing ownership will leave the contract without an owner, thereby removing any functionality that is only available to the owner."
      },
      "safeTransferFrom(address,address,uint256)": {
        "details": "See {IERC721-safeTransferFrom}."
      },
      "safeTransferFrom(address,address,uint256,bytes)": {
        "details": "See {IERC721-safeTransferFrom}."
      },
      "setApprovalForAll(address,bool)": {
        "details": "See {IERC721-setApprovalForAll}."
      },
      "supportsInterface(bytes4)": {
        "details": "See {IERC165-supportsInterface}."
      },
      "symbol()": {
        "details": "See {IERC721Metadata-symbol}."
      },
      "tokenURI(uint256)": {
        "details": "See {IERC721Metadata-tokenURI}."
      },
      "transferFrom(address,address,uint256)": {
        "details": "See {IERC721-transferFrom}."
      },
      "transferOwnership(address)": {
        "details": "Transfers ownership of the contract to a new account (`newOwner`). Can only be called by the current owner."
      }
    },
    "version": 1
  },
  "userdoc": {
    "kind": "user",
    "methods": {},
    "version": 1
  }
}